:100000000C9434000C9451000C9451000C94510049
:100010000C9451000C9451000C9451000C944D011F
:100020000C9476010C949F010C9451000C94510097
:100030000C9451000C9451000C9495000C94BE004B
:100040000C94E7000C9451000C9451000C94510056
:100050000C9451000C9454000C9451000C945100D9
:100060000C9451000C94510011241FBECFEFD8E026
:10007000DEBFCDBF11E0A0E0B1E0EEE0F4E002C0F1
:1000800005900D92A030B107D9F721E0A0E0B1E0D2
:1000900001C01D92A432B207E1F70E9453000C94F4
:1000A00005020C940000FFCF1F920F920FB60F9223
:1000B00011242F933F934F935F936F937F938F936D
:1000C0009F93AF93BF93EF93FF93E0910201F09161
:1000D0000301309781F080910101813021F48091FA
:1000E000790090E007C0A8E7B0E08C9111962C91C0
:1000F00090E0922B099580910001882329F0E8E790
:10010000F0E0828180648283FF91EF91BF91AF9193
:100110009F918F917F916F915F914F913F912F911F
:100120000F900FBE0F901F9018951F920F920FB651
:100130000F9211242F933F934F935F936F937F936D
:100140008F939F93AF93BF93EF93FF93E091080139
:10015000F0910901309709F00995FF91EF91BF9156
:10016000AF919F918F917F916F915F914F913F914F
:100170002F910F900FBE0F901F9018951F920F9206
:100180000FB60F9211242F933F934F935F936F936A
:100190007F938F939F93AF93BF93EF93FF93E091E0
:1001A0000401F0910501309709F00995FF91EF9155
:1001B000BF91AF919F918F917F916F915F914F917F
:1001C0003F912F910F900FBE0F901F9018951F9287
:1001D0000F920FB60F9211242F933F934F935F937B
:1001E0006F937F938F939F93AF93BF93CF93DF933F
:1001F000EF93FF93E0910C01F0910D013097D1F155
:10020000C2E1D1E088819981AA81BB810196A11DBB
:10021000B11D88839983AA83BB8340911A015091B1
:100220001B0160911C0170911D0184179507A607A1
:10023000B70721F0452B462B472BE1F40995109287
:100240001201109213011092140110921501809165
:100250001A0190911B01A0911C01B0911D01892BE5
:100260008A2B8B2B39F080911001811103C0809172
:10027000220186BDFF91EF91DF91CF91BF91AF91A8
:100280009F918F917F916F915F914F913F912F91AE
:100290000F900FBE0F901F9018951F920F920FB6E0
:1002A0000F9211242F933F934F935F936F937F93FC
:1002B0008F939F93AF93BF93EF93FF93E0910A01C6
:1002C000F0910B01309709F00995FF91EF91BF91E3
:1002D000AF919F918F917F916F915F914F913F91DE
:1002E0002F910F900FBE0F901F9018951F920F9295
:1002F0000FB60F9211242F933F934F935F936F93F9
:100300007F938F939F93AF93BF93EF93FF93E0916E
:100310000601F0910701309709F00995FF91EF91DF
:10032000BF91AF919F918F917F916F915F914F910D
:100330003F912F910F900FBE0F901F9018951F9215
:100340000F920FB60F9211242F933F934F935F9309
:100350006F937F938F939F93AF93BF93CF93DF93CD
:10036000EF93FF93E0910E01F0910F013097D1F1DF
:10037000C2E1D1E08C819D81AE81BF810196A11D3A
:10038000B11D8C839D83AE83BF8340911E0150912C
:100390001F01609120017091210184179507A60724
:1003A000B70721F0452B462B472BE1F40995109216
:1003B00016011092170110921801109219018091E4
:1003C0001E0190911F01A0912001B0912101892B64
:1003D0008A2B8B2B39F080911101811103C0809100
:1003E000230186BDFF91EF91DF91CF91BF91AF9136
:1003F0009F918F917F916F915F914F913F912F913D
:0E0400000F900FBE0F901F901895F894FFCF2D
:00000001FF
